:100000000C9434000C943E000C943E000C943E0082
:100010000C943E000C943E000C943E000C943E0068
:100020000C943E000C943E000C943E000C943E0058
:100030000C943E000C943E000C943E000C943E0048
:100040000C943E000C943E000C943E000C943E0038
:100050000C943E000C943E000C943E000C943E0028
:100060000C943E000C943E0011241FBECFEFD8E04C
:10007000DEBFCDBF0E944A000C945F000C940000CC
:1000800080E68AB9089582E584BD81E085BD17BC0C
:1000900018BC089580E68AB90E94430080E090E091
:1000A00087BD2FEF33ED40E3215030404040E1F772
:1000B00000C0000001968F37910584F7F1CFF894C6
:0200C000FFCF70
:00000001FF
