:100000000C9434000C943E000C943E000C943E0082
:100010000C943E000C943E000C943E000C943E0068
:100020000C943E000C943E000C943E000C943E0058
:100030000C943E000C943E000C943E000C943E0048
:100040000C943E000C943E000C943E000C943E0038
:100050000C943E000C943E000C943E000C943E0028
:100060000C943E000C943E0011241FBECFEFD8E04C
:10007000DEBFCDBF0E944C000C9463000C940000C6
:1000800086E084B9089580E1809380001092890011
:1000900089E080938100089586E084B90E9443003E
:1000A0008FEF809388002FEF30E742E021503040FF
:1000B0004040E1F700C00000815099F7109288009D
:0A00C00080E090E00895F894FFCF6F
:00000001FF
