:100000000C9434000C9446000C9446000C9446006A
:100010000C9446000C9446000C9446000C94460048
:100020000C9446000C9446000C9446000C94460038
:100030000C9446000C9446000C948C000C944600E2
:100040000C9446000C9446000C9446000C94460018
:100050000C9446000C9446000C9446000C94460008
:100060000C9446000C94460011241FBECFEFD8E03C
:10007000DEBFCDBF11E0A0E0B1E001C01D92A23013
:10008000B107E1F70E9448000C949E000C94000018
:1000900081E084B982E084BD93EC97BD80936E00CB
:1000A0007894A4E02FEF91E033E0A5BD27BD4FEF9A
:1000B00053E264EF415050406040E1F700C000005F
:1000C00097BD4FEF53E264EF415050406040E1F77D
:1000D00000C0000035BD27BD4FEF53E264EF415033
:1000E00050406040E1F700C0000097BD4FEF53E281
:1000F00064EF415050406040E1F700C0000095BD02
:100100008FEF87BDEFE3FCE93197F1F700C0000006
:1001100081508332B1F7C9CF1F920F920FB60F9261
:1001200011248F939F9385B191E0892785B99F9181
:100130008F910F900FBE0F901F901895F894FFCFDE
:00000001FF
