:100000000C9434000C9446000C9446000C9446006A
:100010000C9446000C9446000C9446000C94460048
:100020000C9446000C9446000C9446000C94460038
:100030000C9446000C9446000C945F000C9446000F
:100040000C9446000C9446000C9446000C94460018
:100050000C9446000C9446000C9446000C94460008
:100060000C9446000C94460011241FBECFEFD8E03C
:10007000DEBFCDBF11E0A0E0B1E001C01D92A23013
:10008000B107E1F70E9448000C9471000C94000045
:1000900081E084B982E084BD93EC97BD80936E00CB
:1000A000789491E095BD8FEF87BDEFE3FCE9319740
:1000B000F1F700C0000081508332B1F7F3CF1F92F7
:1000C0000F920FB60F9211248F939F9385B191E0F9
:1000D000892785B99F918F910F900FBE0F901F9028
:0600E0001895F894FFCF13
:00000001FF
