:100000000C9434000C943E000C943E000C943E0082
:100010000C943E000C943E000C943E000C943E0068
:100020000C943E000C943E000C943E000C943E0058
:100030000C943E000C943E000C943E000C943E0048
:100040000C943E000C943E000C943E000C943E0038
:100050000C943E000C943E000C943E000C943E0028
:100060000C943E000C943E0011241FBECFEFD8E04C
:10007000DEBFCDBF0E9440000C9458000C940000DD
:100080001092C50083E08093C40088E08093C10093
:1000900086E08093C20088E38093C6002FEF39E6A4
:1000A00048E1215030404040E1F700C00000F4CF6B
:0400B000F894FFCFF2
:00000001FF
