:100000000C9434000C9451000C9451000C94510049
:100010000C9451000C9451000C9451000C9451001C
:100020000C9451000C9451000C9451000C9451000C
:100030000C9451000C9451000C9451000C945100FC
:100040000C9451000C9451000C9451000C945100EC
:100050000C9451000C9451000C9451000C945100DC
:100060000C9451000C94510011241FBECFEFD8E026
:10007000DEBFCDBF11E0A0E0B1E0E8EDFBE002C0E3
:1000800005900D92A232B107D9F711E0A2E2B1E0DA
:1000900001C01D92AC32B107E1F70E944A020C94F4
:1000A000EA050C9400001F93182F8A3019F48DE094
:1000B0000E9453008091C00085FFFCCF1093C600C2
:1000C0001F9108958091C00087FFFCCF8091C600EA
:1000D00008959B01AC0180E090E0DC0160E070E0FD
:1000E000EFE8F1E03197F1F700C000004A9B07C04C
:1000F0008C599F4FAF4FBF4F60E070E005C06F5FFE
:100100007F4F6B30710544F482179307A407B5073E
:100110003CF320E030E002C021E030E0C901089566
:100120005C98E0E8F0E080818F7E808389E08093B6
:10013000810008958CE384B98BEF8AB9089580E13A
:10014000809380001092890089E080938100089557
:10015000CF93DF93EC010E949F008AE0809381009F
:100160008EE4809389008EE180938800C130D105B0
:1001700011F42B9A01C02B982C9ADF91CF910895FE
:1001800081E090E00E94A80080E090E04A9907C0DA
:100190008FE99FE00197F1F700C00000F5CF0196CD
:1001A0008A3091059CF30E9490000895CF93DF93CD
:1001B000C0E0D0E081E090E00E94A80060E271EA37
:1001C00087E090E00E9469008130910521F421963A
:1001D0000E94C000EFCF009769F70E9490008FEF58
:1001E00091EEA4E081509040A040E1F700C00000F3
:1001F00080E090E00E94A80060E472E48FE090E06C
:100200000E9469000E94900080E090E00E94A80097
:100210008FEF9BE4ADE181509040A040E1F700C03A
:1002200000000E949000C230D105E1F0C330D1053A
:100230002CF4C130D10509F043C007C0C330D1054B
:10024000E1F0C430D105E1F529C000D000D080E054
:1002500091E0ADB7BEB712969C938E93119787E04D
:1002600090E017C000D000D080E091E0EDB7FEB77D
:100270009283818388E090E01BC000D000D080E0B2
:1002800091E0ADB7BEB712969C938E93119789E01B
:1002900090E014969C938E9313970CC000D000D0DE
:1002A00080E091E0EDB7FEB7928381838AE090E031
:1002B000948383830E9443030F900F900F900F90BD
:1002C0002D9A8FEF97EAA1E681509040A040E1F788
:1002D00000C000002D9881E090E00E94A8008FEF00
:1002E00093EDA0E381509040A040E1F700C00000F2
:1002F000DF91CF91089581E090E00E94A80080E016
:1003000090E0DC01EFE8F1E03197F1F700C0000088
:100310004A9BF5CF8C599F4FAF4FBF4F8038FAE1C2
:100320009F07F6E0AF07F0E0BF0764F30E9490007C
:1003300081E090E00E94A80080E090E04A9B05C028
:1003400025E32A95F1F70000F7CF0196E3E0883E18
:100350009E07A4F30E9490000E94D60008950E9478
:100360009F0080E5809389008FEF809388002C9A0E
:10037000809389009FEF90938800A7ECB0E01197DD
:10038000F1F700C000009150B1F78150883281F739
:100390008FEF9FE4A3EC81509040A040E1F700C0B4
:1003A00000005C98809180008F7E8093800008958B
:1003B000DF93CF930F92CDB7DEB789830E949F0062
:1003C00090E5909389009FEF909388002C9A20E00D
:1003D00030E0898190E068E023C04FEF40938900CE
:1003E0005FEF5093880075E37A95F1F70000515064
:1003F000C1F74150423391F74093890050E0509348
:100400008800E5E3EA95F1F700005F5F5F3FB9F729
:100410004F5F4F3F89F745B1462745B92F5F3F4FA3
:1004200028173907D4F25C98809180008F7E8093E2
:1004300080000F90CF91DF91089582E00E94D80153
:100440000E94AF010E947B016091280170912901F7
:1004500083E390E00E94170308951092C50087E699
:100460008093C40088ED8093C10086E08093C20031
:10047000E0ECF0E080818D7F808385E091E09093D7
:1004800029018093280183E191E0909327018093D3
:10049000260108951F930E949A000E942D0211E0E8
:1004A00080912601909127010E94D502833309F49F
:1004B0004DC0843340F4813391F18233E0F58033D1
:1004C00009F06AC00AC0853309F456C0853308F4C0
:1004D00048C0863309F060C057C0109223011092C3
:1004E00022010EC025B1212725B9EFE3FFE13197A5
:1004F000F1F700C000000196909323018093220140
:100500008091220190912301F7E0803D9F0754F3F1
:10051000609128017091290180E390E043C02C9AFA
:1005200082E00E94D8012C986091280170912901E5
:1005300081E390E037C02C9A0E94AF012C98609123
:1005400028017091290182E390E02CC02C9A0E942E
:100550007B012C98609128017091290183E390E040
:1005600021C02C9A0E941D022C9860912801709144
:10057000290184E390E016C02D9A609128017091C2
:10058000290185E390E00EC02D98609128017091BB
:10059000290186E390E006C060912801709129014D
:1005A00081E690E00E9417037BCFCF93DF93EC01AD
:1005B0003B8130FF36C036FF09C03F7B3B838E81D5
:1005C0009F8101969F838E832A8129C032FF0FC0AD
:1005D000E881F9818081992787FD9095009719F42A
:1005E00030623B831EC03196F983E88311C0EA85EF
:1005F000FB85CE01099597FF0BC02B813FEF8F3F05
:10060000930711F480E101C080E2822B8B8309C043
:100610002E813F812F5F3F4F3F832E83282F30E075
:1006200002C02FEF3FEFC901DF91CF9108950F93E3
:100630001F93CF93DF938C01EB018B8181FF1BC054
:1006400082FF0DC02E813F818C819D812817390743
:1006500064F4E881F9810193F983E88306C0E885B1
:10066000F985802F0995009731F48E819F8101963D
:100670009F838E8302C00FEF1FEFC801DF91CF91E0
:100680001F910F910895A0E0B0E0E9E4F3E00C942D
:10069000C305FE0135966191719180912801909179
:1006A0002901AF010E9458032096E2E00C94DF0577
:1006B000ACE0B0E0EEE5F3E00C94B3056C011B0197
:1006C0008A01FC0117821682838181FFD1C12E012C
:1006D0000894411C511CF6019381F10193FD859111
:1006E00093FF81911F01882309F4BEC1853239F43B
:1006F00093FD859193FF81911F01853229F490E04C
:10070000B6010E941703E7CFEE24FF2420E0203239
:10071000B0F48B3269F08C3228F4803251F083329D
:1007200071F40BC08D3239F0803349F421602CC054
:100730002260246029C0286027C0206125C027FDD1
:100740002CC0382F30533A3098F426FF08C08E2D35
:10075000880FE82EEE0CEE0CE80EE30E15C08F2D80
:10076000880FF82EFF0CFF0CF80EF30E20620CC061
:100770008E3221F426FD78C1206406C08C3611F437
:10078000206802C0883649F4F10193FD859193FFFA
:1007900081911F01882309F0BACF982F9554933087
:1007A00018F09052933028F40C5F1F4FFFE3F98349
:1007B0000DC0833631F0833771F0833509F060C0A6
:1007C00022C0F801808189830E5F1F4F420171E0D2
:1007D000A72EB12C16C062E0662E712C600E711E21
:1007E000F8018080918026FF03C06E2D70E002C06A
:1007F0006FEF7FEFC4012C870E944A055C018301E3
:100800002C852F7717C052E0652E712C600E711E5B
:10081000F8018080918026FF03C06E2D70E002C039
:100820006FEF7FEFC4012C870E943F055C012C8590
:100830002068830123FD20C008C080E290E0B6015B
:100840002C870E941703FA942C858F2D90E0A81610
:10085000B90698F311C0F40127FD859127FF819116
:100860004F0190E0B6012C870E9417032C85F110F0
:10087000FA940894A108B108A114B10461F7F1C079
:10088000843611F0893649F527FF08C0F8016081E8
:100890007181828193810C5F1F4F09C0F8016081D3
:1008A0007181882777FD8095982F0E5F1F4F4FE647
:1008B000B42EB22297FF09C09095809570956195EE
:1008C0007F4F8F4F9F4FF0E8BF2AA2012AE030E010
:1008D0000E945505782E741845C0853731F43FEED7
:1008E000B32EB2222AE030E025C099EFB92EB22211
:1008F0008F36C1F0803720F4883509F0B5C00DC0BF
:10090000803721F0883709F0AFC002C020E1B22A59
:10091000B4FE0BC084E0B82A08C0B4FE09C0E6E00B
:10092000BE2A06C028E030E005C020E130E002C069
:1009300020E132E0B7FE08C0F80160817181828158
:1009400093810C5F1F4F07C0F8016081718180E0C7
:1009500090E00E5F1F4FA2010E945505782E74187B
:10096000FFE7BF22B6FE0BC02EEFB2227E1438F492
:10097000B4FE07C0B2FC05C08FEEB82202C0A72C9F
:1009800001C0AE2C8B2D90E0B4FE0DC0FE01E70D32
:10099000F11D2081203319F4E9EEBE2209C0A39491
:1009A000B2FE06C004C086789070009709F0A39448
:1009B0008B2C9924B3FC14C0B0FE0FC0AF1428F4E4
:1009C000E72CEF0CEA18AF2C08C0E72C06C080E239
:1009D00090E0B6010E941703A394AF14C0F304C0C3
:1009E000AF1410F4FA1801C0FF2484FE0FC080E396
:1009F00090E0B6010E94170382FE1FC081FE03C073
:100A000088E590E010C088E790E00DC0C4018678CA
:100A10009070009791F081FC02C080E201C08BE2EF
:100A2000B7FC8DE290E0B6010E94170306C080E398
:100A300090E0B6010E941703EA947E14C0F37A9402
:100A4000F201E70DF11D808190E0B6010E941703CD
:100A50007720A9F706C080E290E0B6010E94170354
:100A6000FA94FF20C1F737CEF6012681378102C004
:100A70002FEF3FEFC9012C96E2E10C94CF05FC016A
:100A80000590615070400110D8F7809590958E0FB9
:100A90009F1F0895FC016150704001900110D8F72C
:100AA000809590958E0F9F1F0895FA01AA272830F0
:100AB00051F1203181F1E8946F936E7F6E5F7F4F2B
:100AC0008F4F9F4FAF4FB1E03ED0B4E03CD0670FA7
:100AD000781F891F9A1FA11D680F791F8A1F911DFA
:100AE000A11D6A0F711D811D911DA11D20D009F44A
:100AF00068943F912AE0269F11243019305D31938C
:100B0000DEF6CF010895462F4770405D4193B3E074
:100B10000FD0C9F7F6CF462F4F70405D4A3318F01B
:100B2000495D31FD4052419302D0A9F7EACFB4E0CC
:100B3000A6959795879577956795BA95C9F7009784
:100B40006105710508959B01AC010A2E0694579525
:100B5000479537952795BA95C9F7620F731F841F7C
:100B6000951FA01D08952F923F924F925F926F9212
:100B70007F928F929F92AF92BF92CF92DF92EF922D
:100B8000FF920F931F93CF93DF93CDB7DEB7CA1BAE
:100B9000DB0B0FB6F894DEBF0FBECDBF09942A88D9
:100BA000398848885F846E847D848C849B84AA8481
:100BB000B984C884DF80EE80FD800C811B81AA810E
:100BC000B981CE0FD11D0FB6F894DEBF0FBECDBFD9
:080BD000ED010895F894FFCF38
:100BD80025640D0A00000000020000000053000018
:100BE800000000000000010000000000006200009A
:020BF8000000FB
:00000001FF
