:100000000C9434000C9451000C9451000C94510049
:100010000C9451000C9451000C9451000C9451001C
:100020000C9451000C9451000C9451000C9451000C
:100030000C9451000C9451000C9451000C945100FC
:100040000C9451000C9451000C9451000C945100EC
:100050000C9451000C9451000C9451000C945100DC
:100060000C9451000C94510011241FBECFEFD8E026
:10007000DEBFCDBF11E0A0E0B1E0E0EBF9E002C0EF
:1000800005900D92A233B107D9F711E0A2E3B1E0D8
:1000900001C01D92A034B107E1F70E9462010C94E7
:1000A000D6040C9400001F93182F8A3019F48DE0A9
:1000B0000E9453008091C00085FFFCCF1093C600C2
:1000C0001F9108958091C00087FFFCCF8091C600EA
:1000D00008958CE384B984E08AB9089580E180931F
:1000E00080001092890089E0809381000895EF924A
:1000F000FF920F931F93CF93DF930E946E0009E846
:1001000010E080E5D8018C93C8E8D0E08FEF8883B9
:100110002C9A81E8E82EF12C8AE0F70180838EE4A6
:100120008C938EE188838AEA96EEA6E9B1E081504D
:100130009040A040B040D9F7000000D000D000D0DF
:10014000EDB7FEB7319680E091E0ADB7BEB712963D
:100150009C938E93119712821382148215820E94AF
:100160002F028DE4F801808388E788838FEF9FE476
:10017000A3EC81509040A040E1F700C000005C98E3
:10018000E0E8F0E080818F7E808389E0D7018C9366
:10019000EDB7FEB736960FB6F894FEBF0FBEEDBFB3
:1001A000DF91CF911F910F91FF90EF9008950E94E2
:1001B0006E0080E5809389008FEF809388002C9AF1
:1001C000809389009FEF90938800A7ECB0E011978F
:1001D000F1F700C000009150B1F78150883281F7EB
:1001E0008FEF9FE4A3EC81509040A040E1F700C066
:1001F00000005C98809180008F7E8093800008953D
:10020000DF93CF930F92CDB7DEB789830E946E0044
:1002100090E5909389009FEF909388002C9A20E0BE
:1002200030E0898190E068E023C04FEF409389007F
:100230005FEF5093880075E37A95F1F70000515015
:10024000C1F74150423391F74093890050E05093F9
:100250008800E5E3EA95F1F700005F5F5F3FB9F7DB
:100260004F5F4F3F89F745B1462745B92F5F3F4F55
:1002700028173907D4F25C98809180008F7E809394
:1002800080000F90CF91DF9108951092C50087E60E
:100290008093C40088ED8093C10086E08093C20003
:1002A000E0ECF0E080818D7F808386E191E09093A7
:1002B0003D0180933C0184E291E090933B01809367
:1002C0003A0108950E9469000E94450180913A0117
:1002D00090913B010E94C101833331F1843330F4AA
:1002E000813359F0823309F043C013C0853381F163
:1002F000853328F18633E1F533C02C9A82E00E94E1
:1003000000012C9860913C0170913D0181E390E0E7
:1003100035C02C9A0E94D7002C9860913C017091B6
:100320003D0182E390E02AC02C9A0E9477002C982D
:1003300060913C0170913D0183E390E01FC02C9AD5
:100340002C9860913C0170913D0184E390E016C0CF
:100350002D9A60913C0170913D0185E390E00EC0C3
:100360002D9860913C0170913D0186E390E006C0BC
:1003700060913C0170913D0181E690E00E94030292
:10038000A5CFCF93DF93EC013B8130FF36C036FF22
:1003900009C03F7B3B838E819F8101969F838E8323
:1003A0002A8129C032FF0FC0E881F9818081992715
:1003B00087FD9095009719F430623B831EC03196FB
:1003C000F983E88311C0EA85FB85CE01099597FF83
:1003D0000BC02B813FEF8F3F930711F480E101C0E9
:1003E00080E2822B8B8309C02E813F812F5F3F4F9C
:1003F0003F832E83282F30E002C02FEF3FEFC9014B
:10040000DF91CF9108950F931F93CF93DF938C01CA
:10041000EB018B8181FF1BC082FF0DC02E813F81CC
:100420008C819D812817390764F4E881F981019353
:10043000F983E88306C0E885F985802F0995009740
:1004400031F48E819F8101969F838E8302C00FEFCE
:100450001FEFC801DF91CF911F910F910895A0E088
:10046000B0E0E5E3F2E00C94AF04FE013596619153
:10047000719180913C0190913D01AF010E94440235
:100480002096E2E00C94CB04ACE0B0E0EAE4F2E0C9
:100490000C949F046C011B018A01FC0117821682D7
:1004A000838181FFD1C12E010894411C511CF601AA
:1004B0009381F10193FD859193FF81911F01882321
:1004C00009F4BEC1853239F493FD859193FF819182
:1004D0001F01853229F490E0B6010E940302E7CFA4
:1004E000EE24FF2420E02032B0F48B3269F08C320D
:1004F00028F4803251F0833271F40BC08D3239F020
:10050000803349F421602CC02260246029C0286017
:1005100027C0206125C027FD2CC0382F30533A302A
:1005200098F426FF08C08E2D880FE82EEE0CEE0CF6
:10053000E80EE30E15C08F2D880FF82EFF0CFF0C70
:10054000F80EF30E20620CC08E3221F426FD78C125
:10055000206406C08C3611F4206802C0883649F445
:10056000F10193FD859193FF81911F01882309F08B
:10057000BACF982F9554933018F09052933028F4B6
:100580000C5F1F4FFFE3F9830DC0833631F08337D3
:1005900071F0833509F060C022C0F8018081898341
:1005A0000E5F1F4F420171E0A72EB12C16C062E012
:1005B000662E712C600E711EF8018080918026FFDE
:1005C00003C06E2D70E002C06FEF7FEFC4012C8777
:1005D0000E9436045C0183012C852F7717C052E0FE
:1005E000652E712C600E711EF8018080918026FFAF
:1005F00003C06E2D70E002C06FEF7FEFC4012C8747
:100600000E942B045C012C852068830123FD20C0FF
:1006100008C080E290E0B6012C870E940302FA94A1
:100620002C858F2D90E0A816B90698F311C0F4011F
:1006300027FD859127FF81914F0190E0B6012C871E
:100640000E9403022C85F110FA940894A108B108C5
:10065000A114B10461F7F1C0843611F0893649F56F
:1006600027FF08C0F80160817181828193810C5F4E
:100670001F4F09C0F80160817181882777FD80953F
:10068000982F0E5F1F4F4FE6B42EB22297FF09C07E
:1006900090958095709561957F4F8F4F9F4FF0E8B3
:1006A000BF2AA2012AE030E00E944104782E74188B
:1006B00045C0853731F43FEEB32EB2222AE030E058
:1006C00025C099EFB92EB2228F36C1F0803720F4C1
:1006D000883509F0B5C00DC0803721F0883709F0A2
:1006E000AFC002C020E1B22AB4FE0BC084E0B82A39
:1006F00008C0B4FE09C0E6E0BE2A06C028E030E02B
:1007000005C020E130E002C020E132E0B7FE08C0C1
:10071000F80160817181828193810C5F1F4F07C056
:10072000F8016081718180E090E00E5F1F4FA201AF
:100730000E944104782E7418FFE7BF22B6FE0BC05A
:100740002EEFB2227E1438F4B4FE07C0B2FC05C00E
:100750008FEEB82202C0A72C01C0AE2C8B2D90E0EA
:10076000B4FE0DC0FE01E70DF11D2081203319F408
:10077000E9EEBE2209C0A394B2FE06C004C086788A
:100780009070009709F0A3948B2C9924B3FC14C0AB
:10079000B0FE0FC0AF1428F4E72CEF0CEA18AF2C12
:1007A00008C0E72C06C080E290E0B6010E94030278
:1007B000A394AF14C0F304C0AF1410F4FA1801C02E
:1007C000FF2484FE0FC080E390E0B6010E94030284
:1007D00082FE1FC081FE03C088E590E010C088E75C
:1007E00090E00DC0C40186789070009791F081FC74
:1007F00002C080E201C08BE2B7FC8DE290E0B6015E
:100800000E94030206C080E390E0B6010E9403024A
:10081000EA947E14C0F37A94F201E70DF11D808111
:1008200090E0B6010E9403027720A9F706C080E29B
:1008300090E0B6010E940302FA94FF20C1F737CE80
:10084000F6012681378102C02FEF3FEFC9012C96B8
:10085000E2E10C94BB04FC01059061507040011072
:10086000D8F7809590958E0F9F1F0895FC016150D9
:10087000704001900110D8F7809590958E0F9F1FC2
:100880000895FA01AA27283051F1203181F1E89426
:100890006F936E7F6E5F7F4F8F4F9F4FAF4FB1E073
:1008A0003ED0B4E03CD0670F781F891F9A1FA11D6E
:1008B000680F791F8A1F911DA11D6A0F711D811D6F
:1008C000911DA11D20D009F468943F912AE0269F34
:1008D00011243019305D3193DEF6CF010895462F93
:1008E0004770405D4193B3E00FD0C9F7F6CF462F74
:1008F0004F70405D4A3318F0495D31FD40524193DD
:1009000002D0A9F7EACFB4E0A69597958795779599
:100910006795BA95C9F700976105710508959B0120
:10092000AC010A2E06945795479537952795BA95A9
:10093000C9F7620F731F841F951FA01D08952F9282
:100940003F924F925F926F927F928F929F92AF925F
:10095000BF92CF92DF92EF92FF920F931F93CF93AC
:10096000DF93CDB7DEB7CA1BDB0B0FB6F894DEBF43
:100970000FBECDBF09942A88398848885F846E8469
:100980007D848C849B84AA84B984C884DF80EE80B3
:10099000FD800C811B81AA81B981CE0FD11D0FB6BC
:1009A000F894DEBF0FBECDBFED010895F894FFCFE0
:1009B0005370656564206973206A3D257520206940
:1009C0003D2575200A0000000002000000005300D1
:1009D00000000000000000010000000000006200B4
:0209E000000015
:00000001FF
