:100000000C9434000C9451000C9451000C94510049
:100010000C9451000C9451000C9451000C9451001C
:100020000C9451000C9451000C9451000C9451000C
:100030000C9451000C9451000C9451000C945100FC
:100040000C9451000C9451000C9451000C945100EC
:100050000C9451000C9451000C9451000C945100DC
:100060000C9451000C94510011241FBECFEFD8E026
:10007000DEBFCDBF12E0A0E0B1E0E4E8FDE002C0E9
:1000800005900D92A032B107D9F712E0A0E2B2E0DC
:1000900001C01D92A832B107E1F70E9417030C942A
:1000A000C0060C9400001F93182F8A3019F48DE0BD
:1000B0000E9453008091C00085FFFCCF1093C600C2
:1000C0001F9108958091C00087FFFCCF8091C600EA
:1000D00008959B01AC0180E090E0DC0160E070E0FD
:1000E000EFE8F1E03197F1F700C000004A9B07C04C
:1000F0008C599F4FAF4FBF4F60E070E005C06F5FFE
:100100007F4F6B30710544F482179307A407B5073E
:100110003CF320E030E002C021E030E0C901089566
:100120005C98E0E8F0E080818F7E808389E08093B6
:10013000810008958CE384B98BEF8AB9089580E13A
:10014000809380001092890089E080938100089557
:10015000CF93DF93EC010E949F008AE0809381009F
:100160008EE4809389008EE180938800C130D105B0
:1001700011F42B9A01C02B982C9ADF91CF910895FE
:1001800081E090E00E94A80080E090E04A9907C0DA
:100190008FE99FE00197F1F700C00000F5CF0196CD
:1001A0008A3091059CF30E94900008958F929F924F
:1001B000AF92BF92CF92DF92EF92FF920F931F9375
:1001C000CF93DF9333E0E32EF12CC1E0D0E020E0C9
:1001D000C22E21E0D22E9EE1A92E91E0B92E09E394
:1001E00011E086E9882E81E0982E00D000D0ADB7CE
:1001F000BEB71296DC92CE9211971496FC92EE92B4
:1002000013970E94E4030F900F900F900F9081E0DE
:1002100090E00E94A80060E271EA87E090E00E940E
:1002200069007C010E9490008FEF93EDA0E3815064
:100230009040A040E1F700C0000000D000D0ADB772
:10024000BEB71296BC92AE9211971496FC92EE92A3
:1002500013970E94E403EDB7FEB712830183D483A2
:10026000C3830E94E4030F900F900F900F90F1E072
:10027000EF16F104F1F4219600D000D0ADB7BEB76F
:1002800012961C930E9311971496DC93CE931397AA
:100290000E94E4030F900F900F900F900E94C000F7
:1002A00000D000D0EDB7FEB712830183D483C3839F
:1002B0007AC0E114F10409F06AC00E9490008FEF47
:1002C00093ECA9E081509040A040E1F700C000000D
:1002D00080E090E00E94A80000D000D08CE491E083
:1002E000ADB7BEB712969C938E9311971496DC937C
:1002F000CE9313970E94E4030F900F900F900F90EE
:1003000060E472E48FE090E00E9469000E94900037
:100310008FEF93EDA0E381509040A040E1F700C043
:10032000000000D000D08AE691E0ADB7BEB71296CB
:100330009C938E9311971496DC93CE9313970E94FF
:10034000E4030F900F900F900F9080E090E00E94D8
:10035000A8008FEF9BE4ADE181509040A040E1F711
:1003600000C000000E949000C230D10571F1C3307E
:10037000D1052CF4C130D10509F057C01BC0C330E2
:10038000D10581F1C430D10509F04FC038C000D08B
:1003900000D0ADB7BEB712969C928E92119714966C
:1003A000DC93CE9313970E94E4030F900F900F906D
:1003B0000F901BCF00D000D08AEA91E0EDB7FEB7D6
:1003C0009283818387E090E017C000D000D08AEA52
:1003D00091E0ADB7BEB712969C938E93119788E0CB
:1003E00090E019C000D000D08AEA91E0EDB7FEB7E6
:1003F0009283818389E090E09483838310C000D04E
:1004000000D08AEA91E0ADB7BEB712969C938E9366
:1004100011978AE090E014969C938E9313970E9414
:10042000E4030F900F900F900F902D9A8FEF97EAA3
:10043000A1E681509040A040E1F700C000002D9857
:1004400081E090E00E94A8008FEF93EDA0E381503F
:100450009040A040E1F700C00000DF91CF911F91D4
:100460000F91FF90EF90DF90CF90BF90AF909F9053
:100470008F9008958FEA91E00E94F90381E090E067
:100480000E94A80080E090E0DC01EFE8F1E0319705
:10049000F1F700C000004A9BF5CF8C599F4FAF4F3A
:1004A000BF4F8038FAE19F07F6E0AF07F0E0BF07E3
:1004B00064F30E94900088EC91E00E94F9038FEFB2
:1004C00093EDA0E381509040A040E1F700C0000010
:1004D00081E090E00E94A80080E090E04A9B05C087
:1004E00095E39A95F1F70000F7CF0196A3E0883ED7
:1004F0009A07A4F30E94900083EE91E00E94F90312
:100500008FEF93EDA0E381509040A040E1F700C051
:1005100000000E94D60008950E949F0080E580930D
:1005200089008FEF809388002C9A809389009FEF39
:1005300090938800A7ECB0E01197F1F700C000009D
:100540009150B1F78150883281F78FEF9FE4A3EC8F
:1005500081509040A040E1F700C000005C9880917D
:1005600080008F7E809380000895DF93CF930F9259
:10057000CDB7DEB789830E949F0090E590938900F4
:100580009FEF909388002C9A20E030E0898190E0E2
:1005900068E023C04FEF409389005FEF50938800DD
:1005A00075E37A95F1F700005150C1F7415042339D
:1005B00091F74093890050E050938800E5E3EA9575
:1005C000F1F700005F5F5F3FB9F74F5F4F3F89F77B
:1005D00045B1462745B92F5F3F4F28173907D4F259
:1005E0005C98809180008F7E809380000F90CF91E7
:1005F000DF9108951092C50087E68093C40088EDCE
:100600008093C10086E08093C200E0ECF0E080813E
:100610008D7F808383E092E0909325028093240273
:1006200081E192E0909323028093220208950E9438
:100630009A000E94FA0280912202909123020E9465
:100640007603833331F1843330F4813359F08233CC
:1006500009F043C013C0853381F1853328F1863317
:10066000E1F533C02C9A82E00E94B5022C9860918B
:1006700024027091250281E390E035C02C9A0E94FB
:100680008C022C98609124027091250282E390E004
:100690002AC02C9A0E943A022C98609124027091F0
:1006A000250283E390E01FC02C9A2C9860912402CD
:1006B0007091250284E390E016C02D9A6091240287
:1006C0007091250285E390E00EC02D986091240280
:1006D0007091250286E390E006C06091240270913B
:1006E000250281E690E00E94B803A5CFCF93DF9367
:1006F000EC013B8130FF36C036FF09C03F7B3B83B6
:100700008E819F8101969F838E832A8129C032FF2B
:100710000FC0E881F9818081992787FD9095009726
:1007200019F430623B831EC03196F983E88311C00F
:10073000EA85FB85CE01099597FF0BC02B813FEF22
:100740008F3F930711F480E101C080E2822B8B83FD
:1007500009C02E813F812F5F3F4F3F832E83282F7B
:1007600030E002C02FEF3FEFC901DF91CF91089534
:100770000F931F93CF93DF938C01EB018B8181FF4C
:100780001BC082FF0DC02E813F818C819D81281767
:10079000390764F4E881F9810193F983E88306C09D
:1007A000E885F985802F0995009731F48E819F8126
:1007B00001969F838E8302C00FEF1FEFC801DF9168
:1007C000CF911F910F910895A0E0B0E0EAEEF3E021
:1007D0000C949906FE0135966191719180912402E5
:1007E00090912502AF010E942E042096E2E00C9425
:1007F000B506EF92FF920F931F93CF93DF938C0177
:10080000E0912402F0912502838181FF1FC0C0E0A6
:10081000D0E00AC0DB011896ED91FC91199709957B
:10082000009711F0CFEFDFEFF80181918F01609118
:10083000240270912502882369F7DB011896ED9157
:10084000FC9119978AE00995009711F0CFEFDFEF3F
:10085000CE01CDB7DEB7E6E00C94B106ACE0B0E077
:10086000E4E3F4E00C9489066C011B018A01FC01AD
:1008700017821682838181FFD1C12E010894411C09
:10088000511CF6019381F10193FD859193FF8191B4
:100890001F01882309F4BEC1853239F493FD859187
:1008A00093FF81911F01853229F490E0B6010E94E7
:1008B000B803E7CFEE24FF2420E02032B0F48B32DF
:1008C00069F08C3228F4803251F0833271F40BC01D
:1008D0008D3239F0803349F421602CC022602460CD
:1008E00029C0286027C0206125C027FD2CC0382FD3
:1008F00030533A3098F426FF08C08E2D880FE82E2A
:10090000EE0CEE0CE80EE30E15C08F2D880FF82EBE
:10091000FF0CFF0CF80EF30E20620CC08E3221F497
:1009200026FD78C1206406C08C3611F4206802C010
:10093000883649F4F10193FD859193FF81911F0160
:10094000882309F0BACF982F9554933018F090521D
:10095000933028F40C5F1F4FFFE3F9830DC08336FB
:1009600031F0833771F0833509F060C022C0F8019F
:10097000808189830E5F1F4F420171E0A72EB12C49
:1009800016C062E0662E712C600E711EF801808028
:10099000918026FF03C06E2D70E002C06FEF7FEFE5
:1009A000C4012C870E9420065C0183012C852F77CF
:1009B00017C052E0652E712C600E711EF801808008
:1009C000918026FF03C06E2D70E002C06FEF7FEFB5
:1009D000C4012C870E9415065C012C8520688301C8
:1009E00023FD20C008C080E290E0B6012C870E9461
:1009F000B803FA942C858F2D90E0A816B90698F3C9
:100A000011C0F40127FD859127FF81914F0190E0EE
:100A1000B6012C870E94B8032C85F110FA94089433
:100A2000A108B108A114B10461F7F1C0843611F036
:100A3000893649F527FF08C0F801608171818281FC
:100A400093810C5F1F4F09C0F80160817181882775
:100A500077FD8095982F0E5F1F4F4FE6B42EB22280
:100A600097FF09C090958095709561957F4F8F4F46
:100A70009F4FF0E8BF2AA2012AE030E00E942B0637
:100A8000782E741845C0853731F43FEEB32EB2226C
:100A90002AE030E025C099EFB92EB2228F36C1F09E
:100AA000803720F4883509F0B5C00DC0803721F0BB
:100AB000883709F0AFC002C020E1B22AB4FE0BC0F3
:100AC00084E0B82A08C0B4FE09C0E6E0BE2A06C029
:100AD00028E030E005C020E130E002C020E132E053
:100AE000B7FE08C0F80160817181828193810C5F3B
:100AF0001F4F07C0F8016081718180E090E00E5FB8
:100B00001F4FA2010E942B06782E7418FFE7BF2208
:100B1000B6FE0BC02EEFB2227E1438F4B4FE07C02E
:100B2000B2FC05C08FEEB82202C0A72C01C0AE2CCB
:100B30008B2D90E0B4FE0DC0FE01E70DF11D20816C
:100B4000203319F4E9EEBE2209C0A394B2FE06C018
:100B500004C086789070009709F0A3948B2C992498
:100B6000B3FC14C0B0FE0FC0AF1428F4E72CEF0C98
:100B7000EA18AF2C08C0E72C06C080E290E0B6016E
:100B80000E94B803A394AF14C0F304C0AF1410F4D0
:100B9000FA1801C0FF2484FE0FC080E390E0B60184
:100BA0000E94B80382FE1FC081FE03C088E590E06A
:100BB00010C088E790E00DC0C4018678907000975F
:100BC00091F081FC02C080E201C08BE2B7FC8DE2B3
:100BD00090E0B6010E94B80306C080E390E0B60141
:100BE0000E94B803EA947E14C0F37A94F201E70DF0
:100BF000F11D808190E0B6010E94B8037720A9F72B
:100C000006C080E290E0B6010E94B803FA94FF208B
:100C1000C1F737CEF6012681378102C02FEF3FEFB3
:100C2000C9012C96E2E10C94A506FC0105906150E7
:100C300070400110D8F7809590958E0F9F1F0895F2
:100C4000FC016150704001900110D8F7809590959B
:100C50008E0F9F1F0895FA01AA27283051F12031E5
:100C600081F1E8946F936E7F6E5F7F4F8F4F9F4F40
:100C7000AF4FB1E03ED0B4E03CD0670F781F891F82
:100C80009A1FA11D680F791F8A1F911DA11D6A0F50
:100C9000711D811D911DA11D20D009F468943F9103
:100CA0002AE0269F11243019305D3193DEF6CF0102
:100CB0000895462F4770405D4193B3E00FD0C9F7C8
:100CC000F6CF462F4F70405D4A3318F0495D31FD35
:100CD0004052419302D0A9F7EACFB4E0A695979588
:100CE000879577956795BA95C9F70097610571055E
:100CF00008959B01AC010A2E0694579547953795A8
:100D00002795BA95C9F7620F731F841F951FA01D01
:100D100008952F923F924F925F926F927F928F929F
:100D20009F92AF92BF92CF92DF92EF92FF920F937A
:100D30001F93CF93DF93CDB7DEB7CA1BDB0B0FB684
:100D4000F894DEBF0FBECDBF09942A883988488841
:100D50005F846E847D848C849B84AA84B984C884D7
:100D6000DF80EE80FD800C811B81AA81B981CE0FCE
:100D7000D11D0FB6F894DEBF0FBECDBFED010895B3
:040D8000F894FFCF15
:100D84007468657265206973206120646F742070D3
:100D94007265726573756C74202564200A0074682A
:100DA400657265206973206120646F7420726573B5
:100DB400756C74202564200A00686F77206D616E5D
:100DC4007920646F7473202564200A006973207489
:100DD40068697320746865207265616C206D69733D
:100DE40074616B653F2025640A00666F756E64202C
:100DF40074686520656467652C20686F7065667526
:100E04006C6C79206E6F74206D6F726520646F74E2
:100E1400732025640A00636F756E74207468656DB1
:100E240020646F74732025640A0025640D0A006C25
:100E34006F6F6B696E6720666F72206120676F6FDA
:100E440064207374617274006C657420757320621D
:100E54006567696E206F757220616476656E74755E
:100E64007265007768617420646F2077652068611B
:100E740076652068657265202D2D20612077656C6C
:100E84006C3F00000000020000000053000000005E
:100E940000000000010000000000006200000000EB
:00000001FF
