:100000000C9434000C9451000C9451000C94510049
:100010000C9451000C9451000C9451000C9451001C
:100020000C9451000C9451000C9451000C9451000C
:100030000C9451000C9451000C9451000C945100FC
:100040000C9451000C9451000C9451000C945100EC
:100050000C9451000C9451000C9451000C945100DC
:100060000C9451000C94510011241FBECFEFD8E026
:10007000DEBFCDBF11E0A0E0B1E0E8E4F3E002C0F4
:1000800005900D92AC31B107D9F711E0ACE1B1E0C8
:1000900001C01D92AA32B107E1F70E94D9000C9469
:1000A000A2010C9400001F93182F8A3019F48DE0E0
:1000B0000E9453008091C00085FFFCCF1093C600C2
:1000C0001F9108958091C00087FFFCCF8091C600EA
:1000D00008958CE384B984E08AB9089580E180931F
:1000E00080001092890089E0809381000895DF9359
:1000F000CF930F92CDB7DEB789830E946E0090E553
:10010000909389009FEF909388002C9A20E030E034
:10011000898190E068E023C04FEF409389005FEF52
:100120005093880075E37A95F1F700005150C1F7BC
:100130004150423391F74093890050E0509388003A
:10014000E5E3EA95F1F700005F5F5F3FB9F74F5FC6
:100150004F3F89F745B1462745B92F5F3F4F2817D5
:100160003907D4F25C98809180008F7E8093800064
:100170000F90CF91DF9108951092C50087E680938C
:10018000C40088ED8093C10086E08093C200E0EC5B
:10019000F0E080818D7F808380E091E09093270163
:1001A000809326018EE091E09093250180932401B5
:1001B00008950E9469000E94BC00809124019091E2
:1001C00025010E943401833321F1843330F48133DB
:1001D00059F0823309F03FC013C0853361F1853394
:1001E00008F18633C1F52FC02C9A82E00E94770077
:1001F0002C98609126017091270181E390E031C035
:100200002C9A2C98609126017091270182E390E04E
:1002100028C02C9A2C98609126017091270183E3C5
:1002200090E01FC02C9A2C986091260170912701B4
:1002300084E390E016C02D9A609126017091270109
:1002400085E390E00EC02D98609126017091270102
:1002500086E390E006C0609126017091270180E35B
:1002600090E00E947601A9CFCF93DF93EC013B8110
:1002700030FF36C036FF09C03F7B3B838E819F81B4
:1002800001969F838E832A8129C032FF0FC0E881A7
:10029000F9818081992787FD9095009719F4306244
:1002A0003B831EC03196F983E88311C0EA85FB8544
:1002B000CE01099597FF0BC02B813FEF8F3F93072E
:1002C00011F480E101C080E2822B8B8309C02E8172
:1002D0003F812F5F3F4F3F832E83282F30E002C0A6
:1002E0002FEF3FEFC901DF91CF9108950F931F9337
:1002F000CF93DF938C01EB018B8181FF1BC082FFC9
:100300000DC02E813F818C819D812817390764F4AF
:10031000E881F9810193F983E88306C0E885F985CE
:10032000802F0995009731F48E819F8101969F83DC
:100330008E8302C00FEF1FEFC801DF91CF911F9195
:080340000F910895F894FFCF1E
:100348000000000200000000530000000000000050
:0C03580000010000000000006200000036
:00000001FF
