:100000000C9434000C9451000C9451000C94510049
:100010000C9451000C9451000C9451000C9451001C
:100020000C9451000C9451000C9451000C9451000C
:100030000C9451000C9451000C949F000C945100AE
:100040000C9451000C9451000C9451000C945100EC
:100050000C9451000C9451000C9451000C945100DC
:100060000C9451000C94510011241FBECFEFD8E026
:10007000DEBFCDBF11E0A0E0B1E0E6E0F2E002C0FB
:1000800005900D92AA33B107D9F711E0AAE3B1E0C8
:1000900001C01D92A034B107E1F70E9469000C94E1
:1000A00001010C9400001F93182F8A3019F48DE081
:1000B0000E9453008091C00085FFFCCF1093C600C2
:1000C0001F9108958091C00087FFFCCF8091C600EA
:1000D00008951092C50087E68093C40088ED809350
:1000E000C10086E08093C200E0ECF0E080818D7F6B
:1000F00080838EE191E090933D0180933C018CE2FE
:1001000091E090933B0180933A0182E084BD80931B
:100110006E0080E48AB980E091E00E94B1008FEF28
:100120009BE6ABE681509040A040E1F700C00000A4
:100130008CE091E00E94B10080E090E008951F9271
:100140000F920FB60F9211248F939F9385B191E078
:10015000892785B99F918F910F900FBE0F901F90A7
:100160001895EF92FF920F931F93CF93DF938C011B
:10017000E0913C01F0913D01838181FF1FC0C0E00F
:10018000D0E00AC0DB011896ED91FC911997099512
:10019000009711F0CFEFDFEFF80181918F016091AF
:1001A0003C0170913D01882369F7DB011896ED91C0
:1001B000FC9119978AE00995009711F0CFEFDFEFD6
:1001C000CE01CDB7DEB7E6E00C94F2002A8839887C
:1001D00048885F846E847D848C849B84AA84B984DF
:1001E000C884DF80EE80FD800C811B81AA81B981EB
:1001F000CE0FD11D0FB6F894DEBF0FBECDBFED01FF
:060200000895F894FFCF01
:1002060068656C6C6F20776F726C640068656C6CE7
:100216006F20776F726C6420616761696E00000001
:100226000002000000005300000000000000000172
:0A023600000000000000620000005C
:00000001FF
