:100000000C9434000C9446000C9446000C9446006A
:100010000C9446000C9446000C9446000C94460048
:100020000C9446000C9446000C9446000C94460038
:100030000C9446000C9446000C9454000C9446001A
:100040000C9446000C9446000C9446000C94460018
:100050000C9446000C9446000C9446000C94460008
:100060000C9446000C94460011241FBECFEFD8E03C
:10007000DEBFCDBF11E0A0E0B1E001C01D92A23013
:10008000B107E1F70E9448000C9476000C94000040
:1000900081E084B982E084BD93EC97BD80936E00CB
:1000A00085E085BD7894FFCF1F920F920FB60F9217
:1000B00011248F939F9380910001909101010196EB
:1000C00090930101809300018536910544F085B13C
:1000D00091E0892785B910920101109200019F914A
:1000E0008F910F900FBE0F901F901895F894FFCF2F
:00000001FF
