:100000000C9434000C9451000C9451000C94510049
:100010000C9451000C9451000C9451000C9451001C
:100020000C9451000C9451000C9451000C9451000C
:100030000C9451000C9451000C9451000C945100FC
:100040000C9451000C9451000C9451000C945100EC
:100050000C9462000C9451000C9451000C945100CB
:100060000C9451000C94510011241FBECFEFD8E026
:10007000DEBFCDBF11E0A0E0B1E0ECEAF1E002C0EC
:1000800005900D92AA31B107D9F711E0AAE1B1E0CC
:1000900001C01D92AC39B107E1F70E94B2000C9487
:1000A000D4000C94000090919B01E92FF0E0E55EF4
:1000B000FE4F80839F5F90939B0197FF02C0109239
:1000C0009B0108951F920F920FB60F9211248F93E8
:1000D0009F93EF93FF9380911A0190919B01891751
:1000E00071F0E82FF0E0E55EFE4F90819093C6003E
:1000F0008F5F80931A0187FF02C010921A01FF914F
:10010000EF919F918F910F900FBE0F901F901895B8
:10011000EF92FF921F93CF93DF93EC0110E007C0A3
:100120008C0F9D1FFC0180810E9453001F5F812F57
:1001300090E07E01AC2FBF2DFD0101900020E9F77A
:100140003197EA1BFB0B8E179F0750F38091C0007D
:1001500085FF02C01092C600DF91CF911F91FF90E2
:10016000EF9008951092C50087E68093C40088E45C
:100170008093C10086E08093C200789480E091E093
:100180000E94880088E091E00E9488008FEF9DE344
:10019000A9E481509040A040E1F700C0000080E158
:0C01A00091E00E948800FFCFF894FFCF90
:1001AC0048454C4C4F0A0D00576F726C640A0D0099
:0A01BC00476F6F646279650A0D0059
:00000001FF
